:020000041000EA
:1000000000B5324B212058609868022188439860DF
:10001000D860186158612E4B002199600221596106
:100020000121F02299502B49196001219960352056
:1000300000F044F80222904214D00621196600F024
:1000400034F8196E01211966002018661A6600F04E
:100050002CF8196E196E196E052000F02FF8012189
:100060000842F9D1002199601B49196000215960AB
:100070001A491B48016001219960EB211966A021F2
:10008000196600F012F800219960164914480160C1
:100090000121996001BC002800D000471248134993
:1000A000086003C880F30888084703B5996A0420EC
:1000B0000142FBD001200142F8D103BD02B5186610
:1000C0001866FFF7F2FF186E186E02BD00000240BE
:1000D000000000180000070000035F00212200005C
:1000E000F4000018222000A00001001008ED00E03C
:1000F00000000000000000000000000074B24E7A12
:1001000000200420F7010010C3010010C5010010F9
:10011000C1010010C1010010C1010010C101001097
:10012000C1010010C1010010C101001035740010A0
:10013000C1010010C101001091740010D5740010AD
:10014000CD010010CD010010CD010010CD01001037
:10015000CD010010CD010010CD010010CD01001027
:10016000CD010010CD010010CD010010CD01001017
:10017000CD010010CD010010CD010010CD01001007
:10018000CD010010CD010010CD010010CD010010F7
:10019000CD010010CD010010CD010010CD010010E7
:1001A000CD010010CD010010CD010010CD010010D7
:1001B000CD010010CD010010CD010010CD010010C7
:1001C00000BE00BE00BE00BE00BE00BE00F04BF888
:1001D000103800BEF2EB887168820010888200102F
:1001E0003402001090A31AE700202149086006C8D5
:1001F00081F3088810471F48006800282FD10DA4FC
:100200000ECC002902D000F012F8F9E71A491B4A77
:10021000002000E001C19142FCD1194988471949E9
:1002200088471949884700BEFDE701C901C29A42C3
:10023000FBD3704788820010C0000020380D0020DA
:10024000008F00100000042000000420008F001028
:1002500000100420001004200000000070470B482C
:1002600001F010FD0047EFF30580C0B270470000B9
:1002700008ED00E0000000D0380D0020701C0020C8
:10028000551300108D030010851400105756000000
:1002900006005250ABB36053A87F001006005250C6
:1002A000861C0302B87F0010060052505422A29D03
:1002B000C07F001005005250DE65F468008F00100A
:1002C000F8B5C0460448054B10B5834203D0044B33
:1002D000002B00D0984710BD380D0020380D0020AD
:1002E0000000000006480749091A8B10C90FC918F9
:1002F00010B5491003D0044B002B00D0984710BD17
:10030000380D0020380D00200000000010B5074C0B
:100310002378002B09D1FFF7D5FF054B002B02D026
:10032000044800E000BF0123237010BD400E0020F0
:1003300000000000D87E0010054B10B5002B03D044
:100340000449054800E000BFFFF7CCFF10BDC046E0
:1003500000000000440E0020D87E001010B5044CB0
:10036000200001F0ABFE642006F08AF8F8E7C046F2
:10037000D87E001010B5044C200001F09FFE6420D0
:1003800006F07EF8F8E7C046F47E001010B582B0A3
:1003900001F0D0FE00220421012004F009FA0D4BE7
:1003A00000241860802201230B490093520000238F
:1003B0000A48019405F09CFB02238022084900931F
:1003C000520000230748019405F092FB05F0AAFEB5
:1003D000FEE7C0464C190020107F00105D0300109E
:1003E000187F001075030010F8B5EFF3108772B690
:1003F0000E4E3368002BFCD0BFF35F8FCB08C418C0
:100400000725A446C45C01230D40AB4018002040E2
:10041000234208D1624623431370BFF35F8F3060DD
:1004200087F31088F8BD100001F02EF82C0100D0E1
:10043000F8B5CE4647468C4680B5EFF3108872B6C5
:10044000214D2C68002CFCD0BFF35F8F9A422CD832
:10045000D4080721055D0619012411408C402C4267
:100460001FD007218946063909E0D408055D061921
:100470004C460F001440A7403C002F4211D00132DF
:100480009342F2D201204042BFF35F8F00220E4B15
:100490001A6088F3108800280FDB0CBC9046994640
:1004A000F8BD2C4310003470EEE7BFF35F8F0023DC
:1004B0002B6088F31088012040426346002BECD06B
:1004C000089800F0E1FFC0462C0100D0024B1868EC
:1004D0008007C00F7047C04600C006400021044B93
:1004E000044ABFF35F8F02C39342FAD17047C046FC
:1004F000000100D0800100D0044A1078431CDBB218
:10050000172B00D9102313707047C046F00300204A
:1005100000B5054B83B00100009318221F23034848
:10052000FFF786FF03B000BD207F001058140020A5
:1005300083680B4810B58446614462440901120186
:100540009A18591854684B6801209C4201D802D06F
:100550000020C0B210BD12680B689A42F9D8F7E7C4
:10056000FFFFFF0F0A4B1968EFF3108072B60A689D
:10057000002AFCD0BFF35F8F1B68BFF35F8F0022A0
:100580001A6080F3108840BF002000217047C046E9
:100590001C190020F8B557464E464546DE46E0B5E4
:1005A000434D81468A466A68EFF3108872B6136835
:1005B000002BFCD0BFF35F8F2E68B47B002C3ED0A5
:1005C000670033683F19033FDA195378B373002B80
:1005D00000D1F3730023937053701370A968354AE8
:1005E0008C464946A218120162441160514651607E
:1005F0003149D36091603268D2199370537013708F
:10060000737B9B46002B35D022001900B0687368BD
:1006100098473268002820D05B4658465B005B4410
:10062000D719033BB870D118D35C002B00D07B7076
:100630005B460C7073735C451DD0002626E06B682A
:10064000BFF35F8F1C6088F31088012040423CBCE0
:1006500090469946A246AB46F8BD5B465B005B44BC
:10066000033BD3189C70D119D25D002A00D05A7078
:100670005B460B7074734A465346287D00F0B4FB0A
:10068000061EDAD02100286800F026FEEB686A68B2
:100690001B19013B1B78BFF35F8F0021116088F3AA
:1006A00010880020002ED2D118022043CFE7C04688
:1006B000F4030020FFFFFF0F65050010F8B5574653
:1006C00045464E46DE46E0B599460CAB19780DAB73
:1006D0001B78050090469A460768002912D1BE7B18
:1006E000002E45D074003B68A419033C1B195A78AE
:1006F0003100BA73002A00D1FA7300229A705A703E
:100700001A7003E00E004C006418033C2C4B0022CE
:100710009C46AB6861449C464346090161440B60BA
:100720004B464B600A9B8B600B9BCB603B681B1955
:100730009A705A701A707B7B9B46002B2CD032002B
:100740005946B8687B6898473A68002817D05B46D6
:1007500058465B005B441419033BA070D118D35C6E
:10076000002B00D063705B460E707B73B34514D0D2
:1007700030003CBC90469946A246AB46F8BD5B466D
:100780005B005B44033BD3189E701119125D002A75
:1007900000D05A705B460B707E7342464B46287DF4
:1007A00000F022FB041E06D05346002B03D131007B
:1007B000286800F091FD0E9B002BD9D01C70D7E764
:1007C000FFFFFF0FF0B5DE464E4657464546002375
:1007D000E0B58DB00A936B4B8200D3580B909946CD
:1007E00000239B464B46079300F0AEFA079C060099
:1007F0000F006268EFF3108572B61368002BFCD00F
:1008000022000794BFF35F8F2468637B9946002B17
:1008100067D092685C4B90464B441B01984443461A
:100820001A685B6810001900801BB94100295FDD60
:100830000B9800F0D9FA00230026984600279A4624
:10084000079C6368BFF35F8F5A461A6085F3108870
:100850005346002B08D10028C6D10DB03CBC9046B1
:100860009946A246AB46F0BD0A9B414618024B464C
:100870001843D047089009916268EFF3108572B66B
:100880001368002BFCD00794BFF35F8F0899099A77
:10089000002A48DB114303D0079B1B69002B5DD165
:1008A000079B1B68DA7B002A07D051008A18196859
:1008B0008C4649466244033A51704A46DA734B46C5
:1008C000079A013BD168CA5C0132CA545B46079A59
:1008D00013615368BFF35F8F5A461A6085F310881F
:1008E00082E700230026984600279A460020A7E7C3
:1008F000002901D100289BD10021200000F04EFCEE
:1009000043461E685F689B68079A9A464346DB68C1
:100910009846D3684B44013B1B780A931B02034360
:10092000136100208CE72369002BB9D033003C0011
:100930005B1A94411A002300A74219D89F421BD08A
:100940005946049101210391494602914146019182
:10095000514607980091FFF7B1FEB7E700F0F4F9B0
:10096000089A099B06000F0092197B419942E5D92C
:1009700001225242D317E3E79642E1D901225242C3
:10098000D317DDE704190020FFFFFF0F10B5124C4D
:100990006368002B04D00A21104800F0B7FA10BD9C
:1009A00023000F4A1021206800F016FB032000F0FE
:1009B000BFF9032000F08AFA03200A4900F0CEF9BB
:1009C000FFF79AFD084B9C46032360442375074BB1
:1009D00080006060DC60DEE7F40300201C1900206A
:1009E00031050010C5070010400000340419002034
:1009F00000487047F4030020F0B557464546DE46F0
:100A00004E46E0B585B0019310AB1B7800270393E9
:100A1000002380469A46009243465A68EFF31089B5
:100A200072B61368002BFCD0BFF35F8F43461D687E
:100A3000AC7B002C4FD066002B683619033E9B1907
:100A40005A78AA73002A00D1EA7342469F705F70F9
:100A50001F709268524B94460099019AE3181B014B
:100A6000634419605A600E9A9A600F9ADA602B6894
:100A70009B199F705F701F706B7B9B46002B46D04D
:100A800022001900A8686B6898472A68002831D0AE
:100A90005B4658465B005B449619033BB070D11827
:100AA000D35C002B00D073705B460C706B735C459D
:100AB0002ED04346DB681B19013B187843465B6820
:100AC000BFF35F8F1F6089F310885346002B2ED130
:100AD0000002204307E05B68BFF35F8F1C6089F36F
:100AE00010880120404205B03CBC90469946A24681
:100AF000AB46F0BD5B465B005B44033BD3189C7088
:100B00009119925D002A00D05A705B460B706C738D
:100B10004346187D009A019B00F066F98246002842
:100B2000C7D043462100186800F0D6FBC1E7039BFD
:100B3000002B32D00E9B00200F9998470300040031
:100B40000D000B4329D000290DDA0098019902000D
:100B50000B00121BAB41994215D81AD00092019399
:100B6000039B9A4658E700F0EFF802000B00A41828
:100B70005D412000290000900191AB4203D8EFD1E4
:100B800000998A42ECD901235B42DC17009301945F
:100B9000E6E700999142E1D9F5E70020A3E7C046D6
:100BA000FFFFFF0FF8B5CE46474680B506000C00A4
:100BB000FFF7F0FC00280CDC2D4B0020596A8C421A
:100BC00003D89B6A0130B34245D30CBC904699468A
:100BD000F8BD20BF274D6A68EFF3108772B613681F
:100BE000002BFCD0BFF35F8F2B68C1B29C465B7BB0
:100BF0008B4235D0FF2303405A009146624612686B
:100C0000994490464A464244033A9278002A1DD0BD
:100C1000EA68000A90464344013B1B78C0B2834215
:100C200021D06B68BFF35F8F00221A6087F31088B2
:100C30000F4A0020536A9C42C7D8926A0130B242E0
:100C4000C3D2E41A601E8441E0B2BEE72B69984229
:100C5000E7D12A61E5E7641A601E8441E0B2B4E797
:100C6000FF230340D4E7604600F036FBD9E7C046D7
:100C700000400540F4030020F0B5D6464F464646F6
:100C8000C0B5EFF305833F22134018001038EFF38F
:100C9000108C72B6204D2A68002AFCD0BFF35F8FFB
:100CA0000122110081401D4C884661631C491700D8
:100CB0000E788A463100C1400F400A4215D01949CA
:100CC0008200646A51588C4219D3174BD25843465C
:100CD0009E4353461E70BFF35F8F00232B608CF33F
:100CE0001088002A06D0904704E0BFF35F8F2F6082
:100CF0008CF310881CBC90469946A246F0BD0B4A66
:100D00009B00904643441A681A60BFF35F8F00232C
:100D10002B608CF31088EDE7280100D000400540DF
:100D2000561900202819002048130020D03F054004
:100D300010B50100024A0348FFF756FB10BDC0463C
:100D40003C7F001053190020034B596A0A00986A2F
:100D5000596A8A42FAD170470040054070B50400D4
:100D60000D00EFF3108672B61A4A1368002BFCD000
:100D7000BFF35F8F002D1BD0200000F01BFD164934
:100D800081420AD0200000F01DFD0121200000F06A
:100D9000F7FC0123A340114A1360114BA400E55056
:100DA000BFF35F8F00220B4B1A6086F3108870BD73
:100DB0000B4BA200D5500122A2400A4920000B781B
:100DC00093430B70044900F027FD0021200000F040
:100DD000D7FCE5E7280100D0790C00103860054009
:100DE0004813002056190020F0B54F46D646464617
:100DF000C0B50700304C616A0D00A66A616AA9425D
:100E0000FAD18B4208D805D001201CBC90469946E7
:100E1000A246F0BDB242F7D9EFF3108972B6274867
:100E200001680029FCD0BFF35F8F01252449BD4034
:100E30008C460978204C0E002E438846F1B28A4633
:100E4000614650460870391D1E48890065630A5185
:100E5000B9000B50216A0020294219D0616A0800AC
:100E6000A66A616A8142FAD18B4219D801D1B24295
:100E700016D8C2451DD0104B1F201D625D63012393
:100E80000740BB40104A1E381360634642461A7042
:100E9000BFF35F8F0022094B1A6089F31088B4E713
:100EA0000020BFF35F8F0022044B1A6089F3108883
:100EB000ABE70120ECE7C04600400540280100D028
:100EC000561900202819002080E200E010B5EFF349
:100ED000108472B60A490B68002BFCD0BFF35F8FF9
:100EE00001238340074A0848136202789A4302703C
:100EF000BFF35F8F00230B6084F3108810BDC046E2
:100F0000280100D00040054056190020024B9C46A5
:100F100061448900016070474000003410B504004E
:100F2000FFF7EAFA01002000FFF7F0FFFF23A3809C
:100F3000BFF35F8F10BDC04610B50400FFF7DCFAA9
:100F400001002000FFF7E2FF01235B42A380BFF313
:100F50005F8F10BD10B504000120FFF7D9FA034BD5
:100F6000C3189B002360BFF35F8F10BD40000034A7
:100F700070B505000E001400002924D0002A24D0EA
:100F800080686B689847296800280ED063001B1999
:100F90007200033B9219CB18033A9E7088188A5C42
:100FA000002A14D1047030000EE073009B19620017
:100FB000033B1219CB18033A9C7088188A5C002AEC
:100FC00000D05A700670200070BD0800FCE75A700F
:100FD00004703000F8E7C04630B583600023CCB21F
:100FE00043730133047342608373C4730D0000685C
:100FF000012C06D9421C0133DBB2137003329C4230
:10100000F9D1FF2129404B0059180023401803381B
:10101000437030BDF8B5CE46474606000C0080B59B
:10102000002907D04D0003686D18033D5A19577801
:10103000002F04D120000CBC90469946F8BD7900E1
:10104000C9190339884643445978894600215970A3
:10105000517073683A00210080689847336800280F
:1010600014D042469A18947059195B5D002B00D039
:1010700053700F70270049463000FFF7CBFF39004F
:1010800002003000FFF774FF0400D3E742464146F8
:101090005D19AF709A185B5C002B00D06B701470F8
:1010A000E9E7C046F0B557464546DE464E46E0B550
:1010B0000D006B0001685B19DF1E0400C85D83B082
:1010C0000192CA1900284CD043001B18033BCB18CF
:1010D0005E78B446002E16D1019E002E3ED0E67BEF
:1010E000002E04D073009B19CB18033B5D70E57391
:1010F00000282FD10023537003B03CBC9046994682
:10110000A246AB46F0BD72006244033A89184A78A1
:10111000904600224A7091465A7001003200200029
:10112000FFF726FF43468246002B07D05B0021686D
:101130004344033BCB185A78002A16D14246514605
:101140002000FFF715FF2168019BCA19002BC6D1AB
:101150000028CFD043001B18033BCB180021997007
:10116000C8E7019B002BBAD1C4E7500080180338B0
:101170000918487883464846487058704146200010
:10118000FFF7F6FE594680462000FFF743FF414631
:1011900002002000FFF7ECFE8046CFE7F0B54E4698
:1011A0004546DE465746E0B5467B040075000068BC
:1011B000AD19033D83B00191415D421900294ED024
:1011C0004B005B18033BC3185F78BC46002F18D157
:1011D000019D002D40D0E57B002D04D06B005B19F4
:1011E000C318033B5E70E673002931D10023300041
:1011F0005370617303B03CBC90469946A246AB461F
:10120000F0BD7A006244033A801842789346002287
:10121000427091465A7020003A00FFF7A9FE5B46E3
:101220008046002B07D05B0021685B44033BCB1852
:101230005A78002A17D15A4641462000FFF798FEF7
:10124000019B010020684219002BC4D10029CDD098
:101250004B005B18033BC31800209870C6E7019B46
:10126000002BB8D1C2E7500080180338091848781D
:10127000824648464870587059462000FFF778FE6D
:1012800053468346002B07D05B0021685344033B41
:10129000CB185A78002A06D1594652462000FFF74B
:1012A00067FE8346C7E75000801803380918484690
:1012B0004F784870587051462000FFF759FE3900AA
:1012C00081462000FFF7A6FE494602002000FFF7F6
:1012D0004FFE8246E0E7C04670B5040000292CD0DE
:1012E000437B8B422ED005684800401803382818ED
:1012F0008278002A21D053009B18033BEA5CEE1849
:101300008A4202D11BE0002A08D053009B18033BFD
:10131000EB185A788A42F6D142785A70002301229B
:10132000837043702000FFF7BDFE617B0200200048
:10133000FFF71EFE6073012000E0002070BD4378BF
:101340003370EBE701221900FFF7ACFE6073012058
:10135000F4E7C0462F4B304A70B51A602F4A304B25
:1013600030491A6010008B689843FBD12E4C2F4BEC
:101370009C4209D2013B1D1BAD080135AD002D1962
:1013800008CC9847AC42FBD100F09CF8284A244B8B
:101390001A60244A9368DB018033FBD14022254B3D
:1013A000254C9A675A671A67DA66244B9C4214D216
:1013B000013B1D1BED080135ED002D1904E008343B
:1013C000FFF7BAFDAC4208D063792000002BF6D1BC
:1013D0000834FFF7A3FDAC42F6D1194C194DA168B2
:1013E000C022280000F094FDA560FFF777F800F018
:1013F0004BFBFFF7CBFA144C144B9C4209D2013B38
:101400001D1BAD080135AD002D1908CC9847A5422C
:10141000FBD170BD00E00040BFCDFBFEFE7F3C0075
:1014200000F0004000C00040200D0020300D0020E2
:10143000FFFFFF0100F00140180D0020200D0020EB
:1014400000ED00E000000020300D0020380D0020ED
:10145000094A03001068002805D00849C3188B42C8
:1014600007D81360704706480449C31810608B42C0
:10147000F7D901204042F5E7F414002000000420D1
:10148000701C002000BEFDE70FB400B5084883B013
:1014900000F014FE049B002B07D005A91800019151
:1014A00000F0D0FB034800F009FE00BEFDE7C04697
:1014B000607F0010707F001010B50148FFF7E4FF57
:1014C000747F001030B50C2083B000F04BFBFEF7AA
:1014D000FDFF00280ED0944B944A1A605A609A601F
:1014E000DA601A615A619A61DA611A62904A5A6244
:1014F00003B030BD8F4CA06700F088FB01228E4BFB
:101500001A60636C012BFCD103228C4B1A60894A50
:10151000936B012BFCD102240121894A89480533B0
:10152000009400F0CDFA0523874A012187480094F2
:1015300000F0C6FA864B5A68FF2A02D88022520071
:101540005A608022784C7D4B21691201804D1A60CF
:10155000002905D0606900F0C3FB01300138FDD1DE
:10156000E0217B4B02201A681140802252012A435D
:1015700011601968484003210140116004219A68F4
:101580001142FCD08022802192012A43090111607E
:10159000802252005A606F4B23616F4B5968FF29BC
:1015A00000D85A6003226C48634B01211A60020084
:1015B00093681942FCD0E02513681D4080235B012D
:1015C00003431D6012684A40032111401960022143
:1015D000614A93681942FCD0802380219B01034318
:1015E0000901196080215D4B4900516063615C4BCA
:1015F0005A68FF2A00D8596080225A4BE1691201CB
:10160000574D1A60002905D0606900F069FB013070
:101610000138FDD1E02252490B681A4080235B015A
:101620002B431A60802380229B012B4312011A60F6
:1016300080223E4B52004A60E3614B4B5968FF29C0
:1016400000D85A608022494B216A1201464D1A6027
:10165000002905D0606900F043FB01300138FDD15D
:10166000E02241490B681A4080235B012B431A603A
:10167000802380229B012B4312011A608023802249
:101680005B004B60294BD2022362394B596891426F
:1016900000D25A608022374B616A1201344D1A60C1
:1016A000002905D0606900F01BFB01300138FDD135
:1016B000E0222F490B681A4080235B012B431A60FC
:1016C000802380229B012B4312011A608023DB02BE
:1016D0004B60174B6362284B5A68FF2A02D880225E
:1016E00052005A608022254BA1691201224D1A60D6
:1016F000002905D0606900F0F3FA01300138FDD10E
:10170000E0221D490B681A4080235B012B431A60BD
:10171000802380229B012B4312011A6080235B00EF
:101720004B600E4BA361E3E65C140020006CDC020E
:101730001BB70000008000403CB0004030B00040CB
:10174000002F68590080024000389C1C00C00240F5
:1017500030800040001BB7003C80004040597307B8
:101760005480004054B000406080004060B00040B1
:101770006C8000406CB000404880004048B00040A1
:1017800001238340002904D0034A1360034A1360F5
:101790007047034A1360FBE780E200E000E100E0ED
:1017A00080E100E001238340014A13607047C04696
:1017B00000E200E0024B10309B688000C058704788
:1017C00000ED00E070B50D00EFF3108672B60F4A21
:1017D0001368002BFCD0BFF35F8F0D4B10309B685C
:1017E00084001B590B4A934203D09D4201D0FFF75E
:1017F00063FE074B9B681D51BFF35F8FBFF35F8F85
:101800000022024B1A6086F3108870BD240100D0BC
:1018100000ED00E0CD010010F0B5DE4657464E4623
:101820004546E0B50C0083B0EFF3108A72B65B4A10
:101830001368002BFCD0BFF35F8F102291468144C8
:101840004A46574B96009B689D59564B98469D4279
:1018500005D0A54216D0544FEB1B2F2B14D9504B5B
:101860009B689D51BFF35F8FBFF35F8F00224B4B8F
:101870001A608AF3108803B03CBC90469946A24691
:10188000AB46F0BD1D00EAE7012383409B465A4664
:10189000464B1B681A4000925A46454B1A60BFF3EC
:1018A0005F8FFEF7E0FC0190002803D0814501D056
:1018B000FFF702FE01232A009A431300DB1B5B4162
:1018C00042495943090D93689C4208D15BE04300AB
:1018D0001B189B00FB189868A04211D01A00062024
:1018E00010560028F3DA009B002B05D05A46314BE6
:1018F0001A602E4B1A60B2E75A462D4B1A60AEE7BB
:1019000006201856002822DB4200111889007C1896
:101910008846A1689960E179D9710621615699716B
:10192000A1797F291FD8A488F91A64052415444495
:101930000919E0240905490D240221439980121850
:101940001D4B9200BF181A781870BA71CBE7019836
:1019500000280BD1FF30907118489080164A1078FB
:1019600011709871BFE7BD210902E7E7144A1549D4
:10197000D21A083A5002400D014399801249520888
:101980000A43DA80AFE70620105613000028BBDABE
:10199000019A002AEAD14546E0E7C046240100D07A
:1019A00000ED00E0CD0100101C04002000E100E08B
:1019B00080E100E080E200E05419002000BDFFFF5C
:1019C0005604002000F0FFFF00F8FFFFAAAA000065
:1019D000F8B5012504000543FEF745FC0200EFF3CE
:1019E000108672B621490B68002BFCD0BFF35F8FC5
:1019F0001F492000401A4041224B43431B0D1D4804
:101A0000920087685BB2BF58AF421CD006228A564C
:101A10009A421CD012228A569A4222D01E228A56FC
:101A20009A4220D02A228A5603209A4210D0124A83
:101A300011781370A171BFF35F8F00220B4B1A60F6
:101A400086F31088F8BD81680C488850EFE70020C5
:101A50004200121892008918FF228A71084A8A806F
:101A6000E5E70120F4E70220F2E7C046240100D0B8
:101A70001C04002000ED00E054190020CD010010EE
:101A800000BDFFFFAAAA0000F0B500220324FF2733
:101A9000802620003D00094B11009C461040C000EC
:101AA0008540A14361440B680132AB43350085405A
:101AB0002B430B60202AECD1F0BDC04600E400E0CF
:101AC000F8B504000C2017001D000E0000F008F906
:101AD0004101091A8B01591AC900091889013800F6
:101AE00000F0FEF8069A2B04120313432268002A22
:101AF00021DB184AA21851424A41802149018C46F3
:101B000052420A40144962440A6014490A60144966
:101B100017008D68AF43FBD1C021221D89011143FD
:101B200021222660A0600A602268002AFCDAE360B5
:101B300008230B60F8BD3F2221680A40B242D8D189
:101B4000A2681205120D8242D3D1E268002BD0D1D7
:101B5000F0E7C0460040FDBF00E0004000F000405C
:101B600000C000408023024A9B000343D3627047B9
:101B70000080054010B5140080221A4BD2051A606F
:101B800000282CD00123184A1843184BDA61184A50
:101B900042401A62596298628022124BD2051A6042
:101BA0001449154A1160E022D2041A60002C12D0A8
:101BB00080236201121B9200121912015B049A42E7
:101BC00000D30E4A0E4B1A60084B5A6080220D4B10
:101BD000D2051A6010BD0C4A094B1A60F4E7034B9A
:101BE000D861D9E700B00540D3C007B000800540F8
:101BF0002D3FF84FFCFF010008200140FFFFFF00D0
:101C0000FC18002000A00540A0860100AA23064A77
:101C10001B0113602F230549D360054B19605368DE
:101C2000002BFCDA7047C0460040024000B0FA00CA
:101C30000060024010B5002800D110BD00F030FA5D
:101C4000FBE7C04610B5094A0300146884B0002CB5
:101C500008D0012200910648524203A9A047012062
:101C600004B010BD00F02AFA0020F9E7F8180020AF
:101C7000351C001001480421014B18477004002056
:101C8000A51C0010142310B50100188804331B880C
:101C9000984710BD162310B50100188802331B8821
:101CA000984710BDF0B5C64600B5002916D01423DC
:101CB00004000125984618278900461843462168E4
:101CC00018883B88984701C4431E9841404205400C
:101CD000A642F3D1280004BC9046F0BD0125F9E7E7
:101CE000114A936F9B0813D210665166002905D0E4
:101CF000FFE7FFE7FFE7516F106F704704B500285B
:101D000001D00020C04306F0C7F8002104BDC04642
:101D1000F0B5146E556E576F166FFFF7E5FF14663A
:101D2000556657671667F0BD000000D0132370B5E5
:101D30001D78012D10D00BDD2448FFF7ABFF244C9C
:101D400001008022200000F0E3F8022D01D070BDD8
:101D50001F4C204AA264FAE72E001D4C1D4AA3081E
:101D60005B421E401D422FD0330022602020B10074
:101D70006118801B0A604A608A60CA600A614A6111
:101D80008A61CA610A624A628A62CA620A634A63F3
:101D90008A63CA630A644A648A64CA640A654A65D3
:101DA0008A65CA650A664A668A66CA660A674A67B3
:101DB0004008102803D18A67CA67A264C7E71E33A8
:101DC0009B00E250A264C2E70023CFE75344000027
:101DD00058190020D91D001007B5604601880A0A6D
:101DE0000230DF2AFAD1C9B2820804D302884088BF
:101DF0000004104300E00068014A5050039007BD02
:101E00005819002051434343C9188C46110C83B222
:101E10004B4310B4040C614392B280B2504362430E
:101E20001C041B0C001910BC59411304120CC018DF
:101E30005141614470470000132310B512481C78CB
:101E4000FFF728FF0100012C0AD003DD80220F4894
:101E500000F05EF80E48FFF715FF0E4B186010BD3E
:101E60000A4C5422200000F053F80B4B6365A36525
:101E7000E36523666366A366E36623676367A36718
:101E8000E3672362E361E5E753460000581A002048
:101E90004C330000581B00209D1E001007B5604603
:101EA00001880A0A0230DF2AFAD1C9B2820804D3B3
:101EB000028840880004104300E00068014A505046
:101EC000039007BD581A002010B5040005F090FBE0
:101ED000002804D0034B04199C4200D810BD0248CE
:101EE000FFF7D2FA00000420807F001010B505F043
:101EF00089FB10BD01480421014B184780040020D4
:101F0000A51C0010014B1B6818470000800400202E
:101F1000014B5B681847000080040020F8B5474675
:101F2000CE460D0080B516000700002A20DD4B1EAE
:101F300098461A4B002400209946002C2BD043468B
:101F40001B5D0D3B5A425341DBB22A5D0A2A13D076
:101F50000134A642F1DC864203DD311A3B682818C1
:101F60009847AD19013D2B780D3B5A4253413B74C4
:101F70000CBC90469946F8BD002BE9D1A04203DA8B
:101F8000211A3B6828189847484602213B680134CB
:101F900098472000DDE73B7CD7E7C046F07F001084
:101FA000F0B557464546DE464E46D023E0B51B0603
:101FB0001C68374B83B007000D00180001A990463C
:101FC0009A4605F071FF8146002808D1019B64B252
:101FD0009C4204D0504605F077FF012399466B1CC4
:101FE00003D1380005F0E8FD05002A4B1C68002CE1
:101FF0002FD00A23284E9B4602E0E468002C28D00C
:102000002268002AF9D03368002B01D0A342F4D112
:10201000637C002B2AD02A0039002000FFF77EFFC6
:102020004346002BE9D06B465A461A71637C002B5D
:1020300020D0237C002B26D00121236801A89847BB
:102040006B461B790D3B5A4253412374E468002CC4
:10205000D6D14B46002B12D1681E8541E8B203B0A1
:102060003CBC90469946A246AB46F0BD29003800DC
:102070009047D5E70121236801A89847BDE750465E
:1020800005F002FFE8E70221044823689847D7E7F4
:10209000180D0020EC140020F0140020F07F001038
:1020A00010B582B06B4604000022D81D01210470D7
:1020B000FFF776FF200002B010BDC04670B50400E7
:1020C00005F07AFD0122010005002000FFF768FFFE
:1020D000084B1C68002C06D06368002B05D098477D
:1020E000E468002CF8D1280070BDE468002CF3D11E
:1020F000F9E7C046EC1400200D4A1368002B13D0FA
:10210000834202D109E0984208D01A00DB68002B14
:10211000F9D1002900D0D06070471A000029FBD106
:10212000DB68D360C160F7E70029F5D01060F3E702
:10213000EC14002010B500F035F910BD7047C04612
:102140000022014B1A707047551900204B7900206E
:10215000FF2B0BD18B79002B08D1CB79012B05D12B
:10216000082A03D98A78024B09301A707047C04692
:10217000551900200120704770B5002915D1154967
:102180005379107909781B0203430020994200D04B
:1021900070BD5378012B0AD0022BF9D100206422A4
:1021A0000021FFF7E7FC0120F2E70120F0E7947837
:1021B000D278050012021443D20502D5620A934078
:1021C0001D000548FFF75EFD7F2103002140280028
:1021D0009847C0465519002055420000012303705E
:1021E00000487047F47F00104A780B7812021A43B7
:1021F0008B7810B51B041A43CB781B061343962229
:10220000D200934200D010BD0348FFF73BFD0021F0
:10221000030008009847C0465542000070B5184CAE
:1022200082B006000D00200001A905F03DFE002847
:1022300008D1D0231B061B68019A9A421CD02000AB
:1022400005F042FE002001F055FC002807D10325CF
:102250006D42200005F018FE280002B070BD00207D
:1022600001F060FC0028F2D02A003100002001F0CB
:1022700065FC051EEBD0ECE703256D42ECE7C0469C
:1022800020190020F0B54F46D6464646C0B5354B1E
:1022900082B007000D00180001A9994605F004FE60
:1022A000002808D1D0231B061B68019A9A4252D0FD
:1022B000484605F009FE002001F01CFC002842D031
:1022C0000024002D44DD284B9A46984611E0391928
:1022D000002001F0A7FC060000F0C6FC002001F081
:1022E00065FCFEF731FD434618605960A419AC4205
:1022F0002EDA002001F0B0FC2E1B0200B04200DDFF
:102300003200002AE3D100F0AFFC002001F04EFCC7
:10231000002001F0EFFB00281AD0002001F09CFC07
:102320000028E4D1FEF710FD53460E001A685B68E2
:10233000002184460D4812184B419E4208D8D6D140
:102340009445D4D904E000200021074B186059605F
:10235000484605F099FD02B01CBC90469946A2463D
:10236000F0BDC04620190020380E002020A1070033
:102370001F2010B5FFF716FAFA200021800010BDCB
:1023800010B5074C0021200005F08EFD002800D17B
:1023900010BD00F069FC200005F076FDF8E7C046AE
:1023A0002019002070B51E4B84B01B7801F066FE2A
:1023B0001F201C49FFF706FA01211F20FFF7E0F953
:1023C0001948FEF7ABFDFEF713FB0600FEF7BCFC59
:1023D000FA2204000D000023920012196B41994269
:1023E00014D811D001210291002101910F49300030
:1023F0000091FEF701FB0400631E9C41E4B200283B
:1024000008D1200004B070BD9042EBD901225242A5
:10241000D317E7E701210648FFF76EFEF1E7C04654
:1024200084820010812300102019002071230010E5
:102430009004002000487047AC80001000487047AE
:102440005880001010B5040016480378002B20D0E7
:10245000002C06D1144B15484380063BFF3B0380FC
:1024600010BD052C1CD8124B1048A400E458811C48
:10247000002304E001330A800231132B0DD0E25C0B
:10248000002AF7D1C02201335B00920013439BB2B4
:10249000E5E7112102F03EF8DAE7CA239B00DEE708
:1024A0000020DDE73819002009040000C4140020D2
:1024B000C0800010F0B5982357464546DE464E468C
:1024C000484AE0B5D75880253C0085B06D02883B6E
:1024D0002C4003932F4214D0012123200022424B91
:1024E0002C001954D9702F315A541A74002001321B
:1024F0003E4901F053F880223D4B92021A653D4B54
:102500000393FB062AD480239B011F420CD1802316
:102510005B011F4215D1BC425FD105B03CBC904667
:102520009946A246AB46F0BD1C432E4B1B6DDB0308
:102530004DD580222E4B52021A6580235B011F422B
:10254000E9D00021274A0020116001221C4300F03D
:10255000FBFF8022264B12031A65DCE7214B9A6DA4
:10256000002A26D09A46224BB946002601259B46D2
:10257000170003E06D000136202E19D02F42F9D04C
:102580005346DB6D5B4601229D6573085C00164B6C
:1025900090469C46B243A41864016444200000F0B5
:1025A00009FA002807D1AF4301366D00002FE3D1AF
:1025B0004F46039CA7E74346A28AA17800200093D8
:1025C000002301F013F8200000F0CEF9EBE7012220
:1025D0000221002000F044FFABE7210006487940CB
:1025E000FEF752FF00001150F814002000001050B8
:1025F0000030115010000100D880001010B50121EA
:102600000520FFF7BDF810BD01222321002310B5DE
:1026100006484254C2702F328354037400220021B2
:102620002030013300F048FA10BDC046F8140020F5
:102630008022024B5202DA647047C04600201150DB
:1026400070B5050000F068F905201C49FFF7BAF8DD
:1026500080221B4C00212000D200FFF753FC194BB5
:10266000194A40201A6080235B0063800122002306
:10267000212616496270A083A377A1600B60A08712
:102680000238A3552354124912486036FF3663605E
:10269000E16022706684A062036063622033E254CA
:1026A0000D4BE1621A6480229205DA6490220B4994
:1026B00028009950FFF7BCFF70BDC046B52400103C
:1026C000F8140020001900208001105084001050E0
:1026D0000001105080001050000011501030010017
:1026E0000B785B0602D14B78052B09D00121232002
:1026F0000022054BD97019542F311A745A5470475F
:102700008A78024B1A60F1E7F8140020000011509B
:102710000720F0B54F464646D6464A79CC780B7925
:1027200010400002A4071843A30F99469A467F233E
:10273000C0B58F783A4E3B40FD0959004A19520105
:10274000B218977001276F4057705F425F41D77092
:102750004A46012A4CD040284ED84F464A195201C9
:10276000B21890839777DA00012D49D02D4F0024BD
:10277000BC469F016244F719BA601460002B0FD168
:1027800000226B01F3185A60274ADA6001224B19C4
:102790005B010120F2541CBC90469946A246F0BD54
:1027A000DA00224B9C4662447A604B195B01F25C72
:1027B000002AEBD11E4FF3183A68DA60031C402858
:1027C00000D940233F209BB2D318034201D083435A
:1027D00040333B60174B5A4053469C061443A0229B
:1027E0004B195B01F3185B68120614431C60CDE7BC
:1027F0008022D2009042B0D301000F48FEF744FE81
:102800000E4C9F01A44600246244F719BA6214607A
:10281000002BB5D0074ADB00944663447B62C4E7D3
:10282000F8140020840010500001105004001050D3
:102830000019002000001050EC80001080001050A3
:1028400010B57F200C0020404000E4091100001961
:102850001A00044B4001C018012300F02DF901209B
:1028600010BDC046F81400207F2270B50D00110085
:1028700029404C00ED090B4E601940013018837857
:102880001A4204D17D3ADB09D31A074A93668022A3
:102890000649120100F06EF801236419640134192D
:1028A000237470BDF814002000201150FFF7FFFFC3
:1028B0007F2270B50D00110029404C00ED090B4E30
:1028C00060194001301883781A4204D17D3ADB093F
:1028D000D31A074A93660022064900F04BF80023FA
:1028E000641964013419237470BDC046F8140020C3
:1028F00000301150FFF7FFFF7F2110B58078044AA8
:10290000C3099B0001409A580248FEF7BDFDC0462E
:10291000A40400201481001080220E4B520410B534
:102920001A600D4B0D491A6010008B689843FBD15B
:102930000B4C9C2200212000FFF7E4FA80220021AA
:1029400052010848FFF7DEFA092363670333A367E0
:1029500010BDC04600E0004000F0004000C0004054
:102960000000115000001050002303614361836197
:102970007047C04610B58368002901D01C6821400B
:10298000002A11D08024E400114322420CD01A689E
:1029900022420BD1064A0A401A60FFE7FFE7FFE731
:1029A000FFE7FFE7FFE78368196010BDFFF7A4FFAB
:1029B000FFFBFFFFF8B5467C0400002E00D169E064
:1029C00083684078196889058D0D002847D1A18A50
:1029D000691889B2A182A58B628A2B1C3F2D2BD945
:1029E0009FB2BC46551AAFB2BC4523D89DB2E38214
:1029F0008A424CD349D0002826D08022D2002A43D4
:102A0000E378002B02D0802189010A4301214B4049
:102A1000A168E3700B685B0543D4234B13400B6044
:102A2000FFE7FFE7FFE7FFE7FFE7FFE70020A36817
:102A30001A60F8BD2B1CD9E740239FB2BC46551A3B
:102A4000AFB2BC45D2D9F5E7A3692A009C46E0683D
:102A50006144FFF75DFA842212022A43D0E7A3699A
:102A6000A08A9C46E1682A006044FFF751FAA18AD7
:102A70006078691889B2A1820028ACD0E38AAB42A1
:102A8000A9D900236182E382D3E73000D1E7074868
:102A9000FEF7FAFC7F238178054A06481940FEF7C5
:102AA000F3FC2000FFF728FFFFFBFFFF6081001011
:102AB000A40400203481001070B50400002B49D01C
:102AC000437C002B01D0002303740023A08BA3823E
:102AD0006282031C3F2830D998B2904223D89DB21D
:102AE000E382012363746378A161002B2AD08022E2
:102AF000D2002A43E378002B02D0802189010A43C7
:102B000001214B40A168E3700B685B0525D4144B91
:102B100013400B60FFE7FFE7FFE7FFE7FFE7FFE793
:102B2000A3681A6070BD131C9DB2E3820123637415
:102B30006378A161002BDAD104E0402398B290427F
:102B4000CDD9F0E72A00E068FFF7E2F9842212020B
:102B50002A43CFE7FFF72EFFE4E72000FFF7CCFE84
:102B6000FFFBFFFF024B5878431E9841C0B27047ED
:102B700008130020024B18784007C00F7047C0466A
:102B800008130020014B18787047C04651190020E7
:102B9000F8B54746CE4680B5294F05003B78002B57
:102BA00004D001200CBC90469946F8BD3722002184
:102BB0002448FFF7A7F9244C2000FEF7AFF9234B78
:102BC0001C60234C20001C30FEF7C4F9200001F0EB
:102BD00055FC204B204E1C60204B9846002B04D007
:102BE0003000FFF7FBFA1E4B186042460024337892
:102BF000002A1DD01B4A9046194A91469C4210D388
:102C00001BD14346984701343378E4B2A342F5D24E
:102C10002800FFF715FD2800FFF7F0FC01233B70AB
:102C2000BFE74A46630012681B19DB009B58E9E7BF
:102C300001F01EF83378002BEAD000231B68FFDE7A
:102C40005119002008130020C0120020401300205A
:102C5000AC0400204413002050190020DD21001096
:102C6000D00F0020713C0010F0B5DE4657464E46AE
:102C70004546E0B58BB001F007FA002800D132E1FB
:102C8000B94B07AC9A46B94B9B4653461D68EA6957
:102C9000EFF3108372B611680029FCD0BFF35F8F89
:102CA0002B622100280001F055FAEA692B6ABFF374
:102CB0005F8F0021116083F31088002800D112E19A
:102CC0006378082BE1D85A469B00D3589F46636827
:102CD000002BDAD0A0689847D7E77F222179A44B50
:102CE0000A405500C8095B191B181800012620303E
:102CF0004579B543457145790336B5434571002A99
:102D000000D1F7E09B4ADB7C002A06D09A4A127871
:102D1000934200D279E19B1ADBB2002B00D0E2E0B3
:102D2000964D62792078A368A847AEE70122904FBC
:102D300001213B78042013433B702523FA5C8A432E
:102D4000FA54FA5C8243FA540133FA5C8A43FA5427
:102D5000FA5C8243FA5423780020009300F03AFE94
:102D6000602223791A40602A0DD0402A00D1DDE08C
:102D7000DB06DB0E012B00D152E1022B00D10FE16B
:102D8000002B00D1E1E020780021FFF76DFD8021CC
:102D90002078FFF769FD78E7794B002B00D174E7C5
:102DA00000E000BF71E7774B002B00D16DE7704B5F
:102DB00018780007C00F00E000BF66E76E4E6D4A4E
:102DC00000253378002A00D1A3E06F4F9D4208D33D
:102DD0009D4200D0A0E00135EDB29D4200D954E7FC
:102DE000F6D239686A008C465219D20062445269A0
:102DF000002AF0D02078904701353378EDB29D421B
:102E0000E4D942E73722002159482778FFF77AF8BA
:102E10001022FF215D48FFF775F855481222FF2167
:102E20001330FFF76FF800F0CBFD534E514A0025E9
:102E30003378002A64D0564A9046534A9146AB42B2
:102E40003FD863D143463800984701353378EDB217
:102E5000AB42F4D24F4B002B00D116E700E000BF8D
:102E600013E7434F23783722002138009846FFF7B5
:102E700049F81022FF21F81CFFF744F8380012220D
:102E8000FF211330FFF73EF800F09AFD3A4E394A21
:102E900000253378002A42D03B4A91463A00370059
:102EA000464690469D4215D330D1394B3000984765
:102EB00001353B78EDB2AB42F4D247462379BB7083
:102EC000E3E64A4612686B0094465B19DB006344F4
:102ED0005B68B8E74A4612686B0094465B19DB00F2
:102EE00063445B68E2E70BB03CBC90469946A2465F
:102EF000AB46F0BD62792078A36800F07FFDC4E6A0
:102F0000380000F0F3FE3378002BA3D000235B6879
:102F1000FFDE002B00D1B8E600235B69FFDE4046F0
:102F200000F0E4FE3378002BC8D0EFE71A48002801
:102F300000D128E700F04EFD0021009808AA00E02B
:102F400000BF002800D0A0E61DE7202A00D198E0AD
:102F5000002A00D017E76379092B00D913E70F4A3D
:102F60009B00D3589F46C046441300208C8100101C
:102F700008130020DD21001050190020E53E00104C
:102F80000000000000000000D00F00200B13002004
:102F9000ED3C00100000000000000000B0810010B7
:102FA0007F25217A0D40082D00D9ECE6CB09984603
:102FB0006D007B19BF484344DB7C002805D0BE4828
:102FC000007883427ED31B1ADBB2002B76D1002A15
:102FD00000D022E1B94E0222637999469343012B36
:102FE00000D11DE14B46002B00D0CCE67B194344B9
:102FF00020335B7906AA9B07DB0F0232138000980F
:10300000022308A900F080FC3FE65A00D318AC4A1E
:10301000DB001268D318002B00D164E71D6980E63D
:10302000237A0F2B00D9AEE6A24AFB18DB78002AE0
:1030300005D0A14A1278934258D39B1ADBB2002BD9
:1030400000D0A0E69F489D4D00F0C4FC0021EB6835
:10305000009808AA9847002800D016E660221100C0
:10306000237919401A4200D08DE663790A2B00D1EA
:1030700009E10B2B00D086E6009808A900F02CFC93
:1030800003E6237A0F2B00D97DE68A4AFB18DB780A
:10309000002A06D0884A1278934200D2E8E09B1AB0
:1030A000DBB2002B00D06EE68648844D00F092FC27
:1030B0000021EB68009808AA984742E70026002AFA
:1030C00089D060E67E485E00F3180668DB00F618DB
:1030D000002A80D0002E00D155E6F06800F07AFC7E
:1030E0000021F368009808AA98472AE7744A5D000F
:1030F000EB181568DB00ED18002D00D143E6E868F9
:10310000A2E7E388012B00D03DE608223B78009837
:10311000934308A93B7000F0DFFBB6E50220397845
:1031200006AB9A1C8B068908DB0F01400B4365E751
:10313000A37903931A007B78002B02D1002A00D0D8
:10314000C8E0039B009808A97B7000F0C5FB9CE5D4
:103150007B7806AA023213700098012308A900F0B8
:10316000D3FB92E5E388A0791B0A0F2B00D90AE66E
:10317000554A9B00D3589F4608A800F031FCA1791E
:103180000098FFF741FA02223B7813433B707CE53D
:10319000E388012B00D0F6E508223B780098134322
:1031A00008A93B7000F098FB6FE5484B002B00D15D
:1031B000E9E500E000BF050006AB9E1CA91C022249
:1031C0003000FEF7A5FE2A003388009808A900F019
:1031D0009BFBB6E63E4B002B00D1D4E500E000BFE0
:1031E000021E00D1CFE51378009808A900F08CFBEF
:1031F000A7E62189FFF726F9021EF4D1C3E5FFF700
:103200001DF9051ED8D1BEE5FFF714F912230200FF
:1032100008A9009800F078FB93E62A48274E5DE75E
:10322000E388002B10D14B460098012B34D0FFF7D8
:103230001BFB02217B19434420335A790A430121A5
:103240005A715A790A435A71002E00D11DE5F0686F
:1032500000F0C0FBF368002108AA009898470020FE
:1032600000F0B8FB2623FB5CDB0700D50DE503E788
:10327000134A5D00EB181568DB00ED18002D00D136
:1032800081E5E86812E706AB9A1C117001230098EB
:1032900008A900F039FBF8E4FFF70AFB02217B19CB
:1032A000434420335A798A4349465A715A798A43AA
:1032B0005A71C9E7DD210010501900201882001052
:1032C000D00F0020053E0010D88100100000000043
:1032D00000000000501EC0B2FFF7B0F8002800D177
:1032E00051E54378022B00D04DE501210600C2795B
:1032F0000936931152110B400A4012015B0113432E
:103300003A782F318A4313433B70C37882781B028B
:103310001343C31804934D4BB84699463700049B9A
:10332000BB4200D888E000237A7802930B2A04D1AC
:103330003B780297FB181F005A78042A00D022E538
:10334000049B434ADB1B9BB201934B4600251B7831
:10335000002A10D11CE09D4226D13E4B3900019A33
:1033600000989847002822D14B4601351B78EDB2D2
:10337000AB4200D207E59D42EDD2374B1B68059367
:10338000059A6B0094465B19DB0063449B68E5E794
:103390003900019A009800F0BFFC061E54D14B463C
:1033A0001B78002B00D1EEE400239B68FFDE0600B3
:1033B000082E00D8E7E4019BB34200D2E3E4424682
:1033C000BB78D218D178FF2900D0DCE4D570029AFE
:1033D000002A15D091781000994200D0D3E41279D8
:1033E0007B799A4200D0CEE4C278012A08D9023A09
:1033F00004314144D2B2080001322900FEF782FDB7
:103400007F213A0000238C465178052907D1614677
:1034100090780140490041441331C0090D5411789E
:103420005B189BB25218B342EED34B461B78BF19C0
:10343000AB4200D373E7A6E4084B4746002B00D10C
:103440007FE600E000BF7CE6014DB1E750190020A7
:10345000DD210010193D0010D00F002000000000F9
:1034600030B585B005000C000C22002101A8FEF744
:1034700049FD6B461D715C71042C29D005D8022CC6
:1034800038D0032C51D105B030BD052C4DD12C4B7B
:103490001A78D207F7D504211A788A431A70294B73
:1034A0001C68E269EFF3108172B61368002BFCD040
:1034B000BFF35F8F2162200001A900F017FFE269CE
:1034C000236ABFF35F8F0021116083F31088DAE76E
:1034D0001B4B1A78D207D6D504211A780A431A70E2
:1034E000184B1C68E269EFF3108172B61368002B69
:1034F000DED1FBE7124B1A78D207C4D501211A7826
:103500008A431A701A780331A2431A7000225A7043
:103510001A788A431A700B4B1C68E269EFF310812A
:1035200072B61368002BC3D1FBE7064B1C68E26937
:10353000EFF3108172B61368002BB9D1FBE7C046D8
:10354000081300204413002070B584B001AD0600BC
:103550000C000C2200212800FEF7D4FC01236B7024
:103560000D4B2C711C682E70E269EFF3108372B65C
:1035700011680029FCD0BFF35F8F2362290020006F
:1035800000F0B4FEE269236ABFF35F8F002111608F
:1035900083F3108804B070BD44130020002330B5BD
:1035A00085B001AD6B8028700633082202A86B70CD
:1035B000FEF7AEFC0C4B1C68E269EFF3108372B6A9
:1035C00011680029FCD0BFF35F8F2362290020001F
:1035D00000F08CFEE269236ABFF35F8F0021116067
:1035E00083F3108805B030BD44130020F0B5C64603
:1035F000804600B584B001AC0F00160000210822FF
:1036000020001D00FEF77EFC4346237007236370F5
:103610000F4B65711D682771A660EA69EFF310838F
:1036200072B611680029FCD0BFF35F8F2B622100B6
:10363000280000F05BFEEA692B6ABFF35F8F002170
:10364000116083F3108804B004BC9046F0BDC046FE
:1036500044130020F8B5454657464E46DE468046A0
:10366000E0B50C0017001D000026002A39D0304BB1
:103670009A469B4699466378052B0AD1E3789B07C7
:103680009B0FAB4205D1022D3AD0032D2DD0012D39
:1036900006D000203CBC90469946A246AB46F8BDF9
:1036A0004B469B78023B5A425341224A944663441C
:1036B000072260792179024012020A439342E8DB33
:1036C00021004046FFF724F80028E2D0A378DA0969
:1036D000012A08D00A9A137023780136E418BE42F2
:1036E000C9DB0120D6E70B9AF5E75B469B78023BE6
:1036F0005A425341F0225B42920013404033D7E7D5
:1037000053469B78022B08D00723617922790B401E
:103710001B021343402BD3D9BBE762790533134017
:10372000802221791B0292000B439342B1D1C7E75B
:1037300008130020FF030000CB7802009B0770B540
:103740009B0F022B05D0032B27D00020012B10D07C
:1037500070BD214B08799B784C79022B31D007231F
:1037600023401B020343402B29D81000FEF7D0FF53
:10377000EEE7194B4E799B780D79023B5C42634131
:10378000164CA44607243440240263442C439C4234
:10379000DEDC1000FEF7BCFFDAE70F4B4D799B78BB
:1037A0000C79023B58424341F0205B4280000340C9
:1037B000072028400002403320439842D5DD0020F6
:1037C000C6E70533234080241B020343A4000020E6
:1037D000A342BDD1C9E7C04608130020FF03000083
:1037E00070B57F240C406300144CC909E4186418B8
:1037F00020346379DB07DD0F002B18D163795B0779
:1038000001D5280070BD01210D4E4942306804F0F9
:1038100053FB6379DB07DD0F002B0AD163795B076C
:1038200008D40422637901251343637102E0002563
:10383000E7E70025306804F027FBE2E708130020E3
:103840004013002070B50C0001210F4D494228683B
:1038500004F032FB7F2121404B000C49E409C918D8
:10386000091920314B790024DB0708D44B795B0719
:10387000DC0F002B03DA04224B7993434B71286849
:1038800004F002FB200070BD40130020081300204C
:1038900070B57F240C4065000E4C06006419C80901
:1038A0002418203465790020ED0700D570BD01256E
:1038B0006079284360713000FEF7C2FF0028F5D11F
:1038C0000122637993436371637903329343637194
:1038D000ECE7C0460813002070B50A4E0500082228
:1038E00030000C00FEF714FB002161560023C94391
:1038F000C90F2800F3600022C901B360FFF7C8FFB9
:1039000070BDC046AC120020F8B5CE464746904682
:10391000294E80B58146082230000D001F00FEF7B9
:10392000F7FA4346B3600023F381EC79AB792402C4
:103930001C43231CBC4200D93B1C9FB2B381002C0A
:1039400012D0002F1ED04346002B32D03B1C402FFC
:103950001ED89FB233787F2B1FD80021174A3B0017
:103960004846FFF795FF09E0002169560023C94347
:10397000C90F00224846C901FFF78AFF0CBC9046D8
:103980009946F8BD33787F2B10D980210022E6E7D5
:1039900040239FB233787F2BDFD9084C3A00414651
:1039A0002000FEF7B5FA80212200D8E7002100228E
:1039B000D5E70020E2E7C046AC120020C812002084
:1039C00010B5142200210248FEF79CFA10BDC04633
:1039D000AC120020014B18617047C046AC120020A9
:1039E00010B5054C010008222000FEF791FA0023D3
:1039F000A360E36010BDC046AC120020F8B53A4C9D
:103A00001D0023780600DA09C9098A4213D0002074
:103A1000002D00D0F8BD354B002B03D02100300025
:103A2000FEF75EFE2369002B43D022000221300006
:103A300098470120EEE77F2B06D8A068002836D0F3
:103A40002A002B49FEF764FAA368E2895919521932
:103A5000E38892B2E281A160934214D03F2D12D943
:103A6000A589A81A071C80B240282ED82378BFB297
:103A70007F2B2CD80021AA4234D01D4A3B003000B5
:103A8000FFF706FFC6E72369002B05D022000121BE
:103A90003000984700280ED0002161560023C9430A
:103AA000C90F00223000C901FFF7F2FEB2E7002083
:103AB000B0E70120AEE700213000FEF7D5FE300070
:103AC0008021FEF7D1FE0120A4E74027CEE7AA42DD
:103AD00007D0074C3A002000FEF71AFA8021220096
:103AE000CCE780210022C9E7AC120020E1260010BB
:103AF000C812002010B50400FFF734F8002801D1E7
:103B0000002010BDFFF736F80028F9D1B62080005C
:103B1000444303480019037901201840F1E7C046E7
:103B2000D40F0020B6239B00584310B5024B103031
:103B3000C01800F0E9FA10BDD40F0020F0B5B6258A
:103B4000AD0045432C00C646174F1034E41900B5AC
:103B5000200092B200F04CFB0600200000F0ECFACE
:103B60003F2803D8300004BC9046F0BD7B190020EC
:103B7000D9789846FFF734FE0028F3D0200000F0F3
:103B8000DBFA3F280AD996239B00EA184346D2194C
:103B9000D97800204023FFF77BFEE3E7434600206F
:103BA000D978FFF74FFEDDE7D40F0020F8B5040009
:103BB000FEF7D8FF002801D10020F8BDFEF7DAFF9C
:103BC0000028F9D1B620800044432500144E2C353E
:103BD000AD19280000F098FA0028EDD03719002020
:103BE000B978FFF7FDFD0028E6D0A6239B009C4690
:103BF0006444A41921002800402200F0F9FAB978A1
:103C0000051E08D0030022000020FFF741FE002817
:103C1000D2D02800D1E70020FFF714FECCE7C04641
:103C2000D40F002070B5B624A4004443094B2C34B3
:103C3000E418050092B2200000F094FB060020007A
:103C400000F062FA3F2801D8300070BD2800FFF76D
:103C5000ADFFF9E7D40F0020B6239B00584310B501
:103C6000024B2C30C01800F067FA10BDD40F0020B2
:103C7000B622F0B51B4C83B0002120009200FEF765
:103C800041F9FF236371184B80260025E38001274B
:103C900008232100200076002373320027816581EC
:103CA00048310095073B103000F0F2F92100200068
:103CB00049313200FF31012300972C3000F0E8F940
:103CC00092239B00E6183000FDF728F994239B000F
:103CD000A662E61830006562FDF720F92664656487
:103CE00003B0F0BDD40F002000C2FFFF10B5094C97
:103CF000052200212000FEF705F920002C341030A9
:103D000000F0BCFB200000F0B9FB0121200000F016
:103D1000DBFB10BDD40F0020F0B54B79060083B05B
:103D2000022B02D18B79022B03D00025280003B08F
:103D3000F0BDCB79062BF8D82F4FBB78002BF4D1F0
:103D40008B7809253B700C780C196378242B0BD1E8
:103D5000082A02D80FE0AA420DD32378E418ED1800
:103D60006378ADB2242BF6D0052B20D0042B02D1E2
:103D700063790A2B2ED0214C200000F0DDF93F287A
:103D8000D4D92600103E0020F178FFF729FD002845
:103D9000CCD0200000F0D0F93F2816D992239B0008
:103DA000E218F17840230020FFF772FDBEE7210002
:103DB0003000FFF7C1FC0028B7D0A3787B702378D0
:103DC000ED18E4186378ADB2D0E7F1780020FFF782
:103DD00039FDABE70A4B27780193013300930222A8
:103DE00002233000E119FFF735FC00289DD00E3585
:103DF000ED19ADB2BFE7C046D40F0020E40F00209C
:103E0000D60F0020F8B56023140012780500134087
:103E10000020202B12D12E4A6379277916781B02B5
:103E20003B439E420AD16378222B27D007D8202B10
:103E300017D0212B02D100293CD00120F8BD232B23
:103E4000FCD100293ED00229F7D1224B002BF4D01F
:103E5000E178A37809020020194300E000BF0120A7
:103E6000ECE7002926D00229E7D11B4B002BE4D038
:103E70000020911DFEF7B8F90120DFE7002921D0CD
:103E80000229DAD10125A178E47824020C43290023
:103E900014712C321000A14300F016FB0F4B002BC5
:103EA000CBD02900620800202A40214000E000BF5A
:103EB0000120C3E7072321002800094AFFF724FD5A
:103EC0000120BBE721002800FFF706FD0120B5E730
:103ED000D40F002000000000E921001000000000C5
:103EE000DA0F0020F8B557464E464546DE46E0B5A7
:103EF0005D4F8046FA780C001E008A4265D19AB266
:103F000096239B00FD1810239946B9442900484682
:103F100000F028FA554B002B19D07B79FF2B16D0D7
:103F2000002E14D0AA199246BB4603E00135554530
:103F30000DD07B792A789A42F8D1484600F0F4F8FF
:103F40000028F3D15B46597900E000BFEEE7484B0B
:103F5000002B05D0484600F0E7F8002800D176E0B5
:103F6000484600F0E9F83F2858D84A46103A937876
:103F70009C4207D0012420003CBC90469946A246B2
:103F8000AB46F8BD3B4B002B02D0002000E000BF49
:103F9000FEF7E8FD00281DD1374C200000F0B4F8F2
:103FA0000028E7D1002EE5D0B306E3D12C3CA17860
:103FB0004046FFF715FC2500041EDBD0002300223D
:103FC0004046A978FFF764FCD5E7BB788B42D9D08F
:103FD0000024D0E7FEF7CEFD274C0028DDD12000DD
:103FE00000F092F80028D8D025002C3D0020A978B8
:103FF000FFF7F6FB0028D0D09B239B00E718390081
:104000004022200000F0F4F8A978031E28D03A00DE
:104010000020FFF73DFC0028ACD1BEE74D46103D27
:104020000020E978FFF7DCFB002801D1AB789FE79F
:10403000484600F081F83F280CD992229200402394
:104040000020E9784A44FFF723FCAB7890E700E0D2
:1040500000BF85E70020E978FFF7F4FBAB7887E73E
:104060000020FFF7EFFB98E7D40F002000000000CE
:1040700000000000000000000010002010B500202B
:10408000FEF786FD10BDC04610B5FEF77BFD10BDE6
:10409000F0B5C64600B5150006AA1E0013788022AA
:1040A00004000F009846120295422AD84069002861
:1040B00003D00121494203F0FFFEA069002803D08C
:1040C0000121494203F0F8FE4346A5806D00ADB2E0
:1040D00023726B1EA381002360696D42E381276018
:1040E000E68065812382002801D003F0CDFEA0691F
:1040F0000124002801D003F0C7FE200004BC904634
:10410000F0BD0024F9E7C046C189028A8B1A9BB230
:10411000914202D242899B1A9BB28288101C9A4219
:1041200000D9181C80B27047C389008A181A43420C
:104130005841C0B27047C04610B5C489018A83880F
:10414000621A92B28C4202D24089121A92B2981A22
:1041500080B210BD70B5040080690E00002803D045
:104160000121494203F0A8FEE589208AA9B22A1A52
:1041700083B292B2854202D26089121A92B2A088AA
:10418000904206D2A5890A1AAA4228DC92B222825B
:104190000200002A02D127E01B1A9BB29842FBD9E9
:1041A000E288216853433000C918FDF7B1FE0125AC
:1041B00001200122218A8BB20918A08981420BDDDE
:1041C00061895B18D3189BB2A0692382002801D0B3
:1041D00003F05AFE280070BD9B189BB2F4E7628979
:1041E00082188A1A92B2D2E700200025E2E7C04680
:1041F000F0B54F464646D64604008069884691464B
:10420000C0B5002803D00121494203F055FEE289E0
:10421000238A91B2D51A9EB2ADB29A4202D2638974
:10422000ED1AADB2A788AF4208D2A289CB1B934248
:1042300055DC9BB23D002382268AB6B2002D53D0B6
:104240004B46A94549D89DB2B74203D8F61BB6B232
:10425000B742FBD9E388B81B19009946236871431C
:104260009C4680B26144854228D94B46584383B26C
:104270001A0040469A46FDF74BFE4B464046EF1B60
:10428000F6195E4321685044B2B2FDF741FE2F009B
:10429000228AA18993B2D2198A421BDD62899B18B6
:1042A000EB189BB2A0692382002801D003F0ECFD3B
:1042B00028001CBC90469946A246F0BD4A462F00F5
:1042C0006A434046FDF724FE228AA18993B2D2199F
:1042D0008A42E3DC5B199BB2E4E72B1CB3E76389FA
:1042E000FB18CB1A9BB2A5E70027D1E7F8B504006D
:1042F00040690E00002803D00121494203F0DCFD93
:10430000E289218A95B2531A9BB2914202D96289FD
:104310009B1A9BB2A2889A4220D02B00954203D3CD
:104320009B1A9BB29A42FBD9E28821685343C81872
:104330003100FDF7EDFDA389AB420AD90135ADB2DD
:1043400060690127E581002801D003F09DFD380058
:10435000F8BD6389ED180135ADB2F1E7277A002F7A
:10436000DBD1F4E7F0B54E464546DE465746E0B5AC
:1043700004008846160083B0002A5DD040690028FA
:1043800003D00121494203F097FDE789237A228A6D
:10439000A588BFB292B2002B41D1BB1A9BB2974203
:1043A00002D262899B1A9BB2EB1A1A1C9BB2B342CF
:1043B00059D893B29946E388CA469B464B465E1B42
:1043C000B3B201933E00AF4203D3761BB6B2AE4206
:1043D000FBD25846236870439C46AD1BADB2604487
:1043E000A9452ED85A46534641465A43FDF790FDFB
:1043F0005346A289FB184F44934220DD6389FF187E
:10440000BFB26069E781002801D003F03DFD484656
:1044100003B03CBC90469946A246AB46F0BDAE42C6
:1044200023D3E388761B5E439B460023AA461700EE
:10443000A946B0440193C5E700239946E7E7BFB218
:10444000DFE75B465D43ADB22A004146FDF760FD04
:10445000019B2900F2185B465A43206892B24144FE
:10446000FDF756FDC4E7321CA3E7B246E388761B8E
:104470009B46B3B2D1460193A4E7C04610B50400F1
:104480004069002803D00121494203F015FDA069CD
:10449000002803D00121494203F00EFD0023E381EF
:1044A0002382A38860695B009BB25A1E5B42A28193
:1044B0006381002801D003F0E7FCA069002801D047
:1044C00003F0E2FC012010BD70B5040040690D004E
:1044D000002803D00121494203F0EEFCA069002826
:1044E00003D00121494203F0E7FC606925720028EE
:1044F00001D003F0C9FCA069002801D003F0C4FC7E
:10450000012070BD10B5024800F0E2F810BDC046B1
:104510001419002030B54B1E012900D1B0E06B4AC0
:1045200011780D112C0030349F2900D9ABE00470B4
:10453000012B00D1C7E00F21147821400C0030344A
:10454000092900DDA1E04470022B00D1BBE05178C5
:104550000D112C0030349F2900D999E08470032B71
:1045600000D1B0E00F21547821400C0030340929EB
:1045700000DD8FE0C470042B00D1A4E091780D1110
:104580002C0030349F2900D987E00471052B00D11D
:1045900099E00F21947821400C003034092900DD86
:1045A0007DE04471062B00D18DE0D1780D112C00F7
:1045B00030349F2900D975E08471072B00D182E047
:1045C0000F21D47821400C003034092900DD6BE044
:1045D000C471082B00D176E011790D112C00303414
:1045E0009F2964D80472092B00D16CE00F21147943
:1045F00021400C00303409295BDC44720A2B62D064
:1046000051790D112C0030349F2955D884720B2B11
:1046100059D00F21547921400C00303409294DDC48
:10462000C4720C2B4FD091790D112C0030349F297E
:1046300000D9073404730D2B45D00F219479214004
:104640000C003034092901DD37310C0044730E2B86
:1046500039D0D1790D112C0030349F2900D907347D
:1046600084730F2B2FD0D1790F220A4011003731DC
:10467000092A01DC30321100C173102B23D0103015
:104680000023037030BD073451E737310C005AE77F
:10469000073463E737310C006CE7073475E73731CF
:1046A0000C007EE7073487E737310C0090E70734CA
:1046B00098E737310C00A0E70734A7E737310C0043
:1046C000C4720C2BAFD1C018DAE7C0461419002011
:1046D00030B5002589B004000922002101A8009509
:1046E000FDF710FC0922002105A80495FDF70AFC3E
:1046F0004B236A466846137004A90D2203F0BCFBE5
:104700001521082220006944FDF702FC09B030BDE4
:1047100070B504000D00002832D0C36B0020002BC0
:1047200020D0216C180C0A0C1DD100282AD102F0CF
:1047300091FE216CE36B22684B43D0185B1AD318AF
:10474000A0606260E3604422FF230020A063A354C2
:104750000132A354002D18D12369002B1ED102F081
:1047600085FE012070BD00280AD1181C89B29BB2B9
:104770004B4380B292B242431B0CD3181B0CD6D0D1
:104780000020EFE7021C081CF0E72000103002F0C8
:10479000E9FE2000243002F0E5FEE0E720001030C2
:1047A00002F006F80028DAD002F048FED7E7C0464B
:1047B00070B505000E00002843D00B0C020C002B36
:1047C00031D1331C002A32D1300068430300493311
:1047D00037D8483002F0E2FD041E32D00300002E2C
:1047E00000D048332360E563266402F033FE216C79
:1047F000E36B22684B43D018A06000205B1AD318EB
:104800006260E3604422FF23A0632000A3540132CE
:10481000A354103002F0A6FE2000243002F0A2FEC5
:1048200002F024FE0EE0002A0BD11A1C031CB0B2C9
:10483000A9B2414398B293B24343090C5B181B0CD5
:10484000C2D00024200070BDF0B5D64646464F4683
:104850000400C0B5060084B09A460192884602F072
:10486000F9FDA36BE26B0025243693427DD35346BA
:10487000022B00D1E3E0019B002B00D1FBE0002DD7
:1048800000D1D8E002F0F2FD01F018FD02F0E2FDE7
:104890004422A35C5BB2013301D10023A35445221F
:1048A000A35C5BB2013301D10023A35402F0DEFD0F
:1048B00001A902A802F040F8002800D0DFE002F0D1
:1048C000C9FDA36BE26B934263D002F0CFFD02F00F
:1048D000C1FD4523E55C6DB2002D05DC13E0013D13
:1048E000EBB26DB2002B0ED0636A002B0BD0300000
:1048F00001F05EFF0028F2D0013D02F045F8EBB276
:104900006DB2002BF0D14523FF22E25402F0AEFD40
:1049100002F0A0FD4423E55C343B99466DB2A1440E
:10492000002D05DC13E0013DEBB26DB2002B0ED083
:104930002369002B0BD0484601F03AFF0028F2D043
:10494000013D02F021F8EBB26DB2002BF0D144230F
:10495000FF22E25402F08AFD01F0B8FC012502F0CA
:1049600079FDA36BE26B934281D2226CA56B002A86
:1049700000D0CEE00135A563636A002B00D0DCE0F7
:1049800002F074FD012004B01CBC90469946A2467A
:10499000F0BD2700103702F069FD3800019901F0E1
:1049A00031FE02F057FD4523E55C6DB2002D05DCBC
:1049B00013E0013DEAB26DB2002A0ED0636A002B0B
:1049C0000BD0300001F0F4FE0028F2D0013D01F0E0
:1049D000DBFFEAB26DB2002AF0D14523FF22E25498
:1049E00002F044FD02F036FD4423E55C6DB2002D7B
:1049F00005DC13E0013DEAB26DB2002A0ED0236956
:104A0000002B0BD0380001F0D3FE0028F2D0013D7E
:104A100001F0BAFFEAB26DB2002AF0D14423FF22BE
:104A2000E25402F023FD01F051FC002896D102F07F
:104A300005FD012593E702A801F076FF22E7226C2D
:104A4000A56B002A96D04146E068FDF761FAE1685F
:104A5000236C5A42CB1A2168E3608B4207D2A368C9
:104A60009C466244E2605346022B00D082E7002D50
:104A700000D080E77EE702F0F9FC002083E702F037
:104A8000E9FC45232600E55C24366DB2002D05DCEB
:104A900013E0013DEAB26DB2002A0ED0636A002B2A
:104AA0000BD0300001F084FE0028F2D0013D01F06F
:104AB0006BFFEAB26DB2002AF0D14523FF22E25427
:104AC00002F0D4FC02F0C6FC44232600E55C10365C
:104AD0006DB2002D05DC13E0013DEAB26DB2002A93
:104AE0000ED02369002B0BD0300001F061FE0028AE
:104AF000F2D0013D01F048FFEAB26DB2002AF0D1D8
:104B00004423FF22E25402F0B1FC01F0DFFB00205D
:104B100039E753464146002B19D16068FDF7F8F993
:104B2000226C63689446A26863446360934200D237
:104B300020E72368013563601DE72000243001F081
:104B400037FE002800D11BE702F078FC18E7E06888
:104B5000FDF7DEF9E168236C5A42CB1A2168E36065
:104B60008B4280D27BE7C046F0B54F46D6464646DC
:104B7000C0B5040099460F00904602F081FCE36B3B
:104B80000500A06B98421ED34B46022B09D000248F
:104B9000280002F079FC20001CBC90469946A246F1
:104BA000F0BD4523226CE65CA36BA36B76B29A46FC
:104BB000002A2FD10133A363731C21D1636A002B18
:104BC0003ED10124E4E74523226CE65CA36BA36B92
:104BD00076B29A46002AEDD04B463900002B41D1DF
:104BE0006068FDF795F9226C63689446A268634497
:104BF0006360934221D32368636053460133DAE74D
:104C000001F074FC8642DCD24523013676B2E654CC
:104C10000124BDE73900E068FDF77AF9E168236C0B
:104C20005A42CB1A2168E3608B4217D2A3689C4694
:104C30006244E2604B46022B10D053460133BAE780
:104C40002000243001F0B4FD0028BAD04346002BE8
:104C5000B7D0012342460124136099E75346002B45
:104C6000A9D1A7E7E068FDF753F9E168236C5A4240
:104C7000CB1A2168E3608B42DCD2D7E7F0B5C64699
:104C8000040000B50E0002F0FBFBA36BE26B050015
:104C900000279A420BD94522A75C01337FB2904688
:104CA000A3637B1C0AD1636A002B11D10127280062
:104CB00002F0EAFB380004BC9046F0BD01F016FC9F
:104CC0008742F3D2434601377FB2E7540127EEE72C
:104CD0002000243001F06CFD0028E7D0002EE5D044
:104CE000012301273360E2E7F0B5CE4647460400D2
:104CF00080B585B08846019202F0ACFBA56B002D13
:104D000000D023E1019B002B00D1CBE0260002A8BC
:104D100001F00AFE4427243602F0A8FB01F0CEFA87
:104D200002F098FBE35D5BB2013301D10023E35550
:104D30004522A35C5BB2013301D10023A35402F0EE
:104D400095FB01A902A801F0F7FD002855D102F05A
:104D500081FBA36B002B00D0ACE002F087FB30009E
:104D6000019901F04FFC02F075FB4523E55C6DB243
:104D7000002D05DC13E0013DEAB26DB2002A0ED031
:104D8000636A002B0BD0300001F012FD0028F2D036
:104D9000013D01F0F9FDEAB26DB2002AF0D14523E0
:104DA000FF22E25402F062FB02F054FB102399460A
:104DB000E55DA1446DB2002D05DC13E0013DEAB2D2
:104DC0006DB2002A0ED02369002B0BD0484601F0AB
:104DD000EFFC0028F2D0013D01F0D6FDEAB26DB241
:104DE000002AF0D1FF23E35502F040FB01F06EFAF8
:104DF00000284ED102F022FB4BE002F02BFB4523B2
:104E0000E55C6DB2002D05DC13E0013DEAB26DB248
:104E1000002A0ED0636A002B0BD0300001F0C8FCD2
:104E20000028F2D0013D01F0AFFDEAB26DB2002AD8
:104E3000F0D14523FF22E25402F018FB02F00AFBF6
:104E400010239946E55DA1446DB2002D05DC13E009
:104E5000013DEAB26DB2002A0ED02369002B0BD0BF
:104E6000484601F0A5FC0028F2D0013D01F08CFD80
:104E7000EAB26DB2002AF0D1FF23E35502F0F6FA50
:104E800001F024FA02F0E6FAA36B002B0AD002F03C
:104E9000EDFA02F0DFFAA56B002D57D1019B002B34
:104EA00000D039E702F0E2FA002005B00CBC9046D1
:104EB0009946F0BD02F0DAFA02F0CCFA4523E55C3F
:104EC0006DB2002D05DC13E0013DEAB26DB2002A9F
:104ED0000ED0636A002B0BD0300001F069FC002873
:104EE000F2D0013D01F050FDEAB26DB2002AF0D1DE
:104EF0004523FF22E25402F0B9FA02F0ABFA102384
:104F00009946E55DA1446DB2002D05DC13E0013D3D
:104F1000EAB26DB2002A0ED02369002B0BD04846AE
:104F200001F046FC0028F2D0013D01F02DFDEAB26F
:104F30006DB2002AF0D1FF23E35502F097FA01F099
:104F4000C5F902F087FAA56B002DA7D0226C002AC4
:104F500008D0E3689918A368E16099420BD24046F3
:104F6000FCF7D6FF013DA5632369002B06D102F0B3
:104F70007DFA012099E72168E160F0E72000103018
:104F800001F016FC0028F2D002F058FAEFE7C04614
:104F9000F0B5C646040000B584B0019102F05AFA9B
:104FA000A36B002B00D022E1019B002B00D1CBE0B2
:104FB000260002A801F0B8FC4427243602F056FA75
:104FC00001F07CF902F046FAE35D5BB2013301D1F6
:104FD0000023E3554522A35C5BB2013301D10023DA
:104FE000A35402F043FA01A902A801F0A5FC00288D
:104FF00055D102F02FFAA36B002B00D0ABE002F0EA
:1050000035FA3000019901F0FDFA02F023FA452348
:10501000E55C6DB2002D05DC13E0013DEAB26DB236
:10502000002A0ED0636A002B0BD0300001F0C0FBC9
:105030000028F2D0013D01F0A7FCEAB26DB2002ACF
:10504000F0D14523FF22E25402F010FA02F002FAF6
:10505000E55D6DB2002D17DD10239846A04404E0F5
:10506000013DEAB26DB2002A0ED02369002B0BD0AD
:10507000404601F09DFB0028F2D0013D01F084FC88
:10508000EAB26DB2002AF0D1FF23E35502F0EEF947
:1050900001F01CF900284ED102F0D0F94BE002F0EB
:1050A000D9F94523E55C6DB2002D05DC13E0013D27
:1050B000EAB26DB2002A0ED0636A002B0BD030002A
:1050C00001F076FB0028F2D0013D01F05DFCEAB270
:1050D0006DB2002AF0D14523FF22E25402F0C6F956
:1050E00002F0B8F9E55D6DB2002D17DD102398468A
:1050F000A04404E0013DEAB26DB2002A0ED023695B
:10510000002B0BD0404601F053FB0028F2D0013DAC
:1051100001F03AFCEAB26DB2002AF0D1FF23E35568
:1051200002F0A4F901F0D2F802F094F9A36B002B7D
:105130000AD002F09BF902F08DF9A36B002B56D137
:10514000019B002B00D039E702F090F9002004B059
:1051500004BC9046F0BD02F089F902F07BF94523CA
:10516000E55C6DB2002D05DC13E0013DEAB26DB2E5
:10517000002A0ED0636A002B0BD0300001F018FB20
:105180000028F2D0013D01F0FFFBEAB26DB2002A27
:10519000F0D14523FF22E25402F068F902F05AF9F7
:1051A000E55D6DB2002D17DD10239846A04404E0A4
:1051B000013DEAB26DB2002A0ED02369002B0BD05C
:1051C000404601F0F5FA0028F2D0013D01F0DCFB89
:1051D000EAB26DB2002AF0D1FF23E35502F046F99E
:1051E00001F074F802F036F9A36B002BA8D0013B54
:1051F000A3632369002B03D102F038F90120A6E74D
:105200002000103001F0D4FA0028F5D002F016F991
:10521000F2E7C046F0B5CE464746040080B585B0FB
:105220008846019202F016F9A36B002B00D01FE113
:10523000019B002B00D1CBE0260002A801F074FBFB
:105240004427243602F012F901F038F802F002F98E
:10525000E35D5BB2013301D10023E3554522A35C3A
:105260005BB2013301D10023A35402F0FFF801A97E
:1052700002A801F061FB002855D102F0EBF8A36B06
:10528000002B00D0ACE002F0F1F83000019901F001
:10529000B9F902F0DFF84523E55C6DB2002D05DCBD
:1052A00013E0013DEAB26DB2002A0ED0636A002B12
:1052B0000BD0300001F07CFA0028F2D0013D01F063
:1052C00063FBEAB26DB2002AF0D14523FF22E2541B
:1052D00002F0CCF802F0BEF810239946E55DA14437
:1052E0006DB2002D05DC13E0013DEAB26DB2002A7B
:1052F0000ED02369002B0BD0484601F059FA002844
:10530000F2D0013D01F040FBEAB26DB2002AF0D1CB
:10531000FF23E35502F0AAF800F0D8FF00284ED191
:1053200002F08CF84BE002F095F84523E55C6DB295
:10533000002D05DC13E0013DEAB26DB2002A0ED06B
:10534000636A002B0BD0300001F032FA0028F2D053
:10535000013D01F019FBEAB26DB2002AF0D14523FC
:10536000FF22E25402F082F802F074F8102399460A
:10537000E55DA1446DB2002D05DC13E0013DEAB20C
:105380006DB2002A0ED02369002B0BD0484601F0E5
:105390000FFA0028F2D0013D01F0F6FAEAB26DB240
:1053A000002AF0D1FF23E35502F060F800F08EFFF1
:1053B00002F050F8A36B002B0AD002F057F802F06D
:1053C00049F8A36B002B53D1019B002B00D039E788
:1053D00002F04CF8002005B00CBC90469946F0BD98
:1053E00002F044F802F036F84523E55C6DB2002D7A
:1053F00005DC13E0013DEAB26DB2002A0ED0636A0B
:10540000002B0BD0300001F0D3F90028F2D0013D81
:1054100001F0BAFAEAB26DB2002AF0D14523FF22B8
:10542000E25402F023F802F015F810239946E55DE6
:10543000A1446DB2002D05DC13E0013DEAB26DB26E
:10544000002A0ED02369002B0BD0484601F0B0F99A
:105450000028F2D0013D01F097FAEAB26DB2002ABD
:10546000F0D1FF23E35502F001F800F02FFFA6E78B
:10547000226CE568002A07D0A368A918E160994268
:105480000AD24046FCF744FD636AE560002B06D172
:1054900001F0ECFF01209EE72168E160F1E72000C8
:1054A000243001F085F90028F2D001F0C7FFEFE7C2
:1054B000F8B5CE464746040080B58946904601F0CF
:1054C000DFFFA66B05000027002E07D1280001F0A2
:1054D000DBFF38000CBC90469946F8BD4423226C93
:1054E000E75C7FB2002A0AD0E3689918A368E160FC
:1054F000994201D32168E1604846FCF709FD013E6D
:10550000A6637B1C04D12369002B0BD10127DDE7A7
:1055100000F0ECFF8742F9D2442301377FB2E75411
:105520000127D3E72000103001F042F90028EDD028
:105530004346002BEAD00123424601271360C5E70A
:10554000F8B504000F0001F09BFFA36B05000026D7
:10555000002B04D1280001F097FF3000F8BD226C29
:10556000E668002A09D0A368B118E160994201D326
:105570002168E1603800FCF7CBFCE6600126E9E732
:1055800010B5040001F066FFA46B01F06FFF20006E
:1055900010BDC04610B5040001F05CFFA36BE46BC6
:1055A000E41A01F063FF200010BDC046806B704715
:1055B0001D4B10B55A6890421DD0DA68904221D038
:1055C0005A69904220D0DA6990421FD05A6A9042BC
:1055D0001ED0DA6A90421DD05A6B90421CD0DA6B12
:1055E00090421BD05A6C90421AD0DA6C904219D07B
:1055F00001F0E0FE10BD00220021D20099509B185E
:105600005960F5E70122F7E70222F5E70322F3E705
:105610000422F1E70522EFE70622EDE70722EBE798
:105620000822E9E70922E7E71C1C0020806B4342BF
:1056300058417047836BC06BC01A43425841704752
:1056400070B500290FD000260023424CDA00A518BF
:105650006D68854200D16FE0002E05D001330A2B22
:10566000F4D13160706070BDA558002D61D05D1C13
:10567000092BF8D0EA00A6187668B0425CD0A6588C
:10568000002E5DD09D1C082BEDD0EA00A618766890
:10569000B04251D0A658002E52D0DD1C072BE2D0CC
:1056A000EA00A6187668864246D0A658002E47D053
:1056B0001D1D062BD7D0EA00A6187668B0423BD055
:1056C000A658002E3CD05D1D052BCCD0EA00A618B4
:1056D0007668B04230D0A658002E31D09A1D042BE7
:1056E000C1D0D50066197668B04224D06559002D26
:1056F00029D0DD1D032BB6D0EA00A6187668B0428B
:105700001AD0A658002E1BD00135022BABD0EA00D0
:10571000A6187668B0420FD0A658002E10D0012BE4
:10572000A1D0E36C984212D0A36C002B9BD109232B
:105730004822A61892E7D200A6183160706092E75E
:105740002B00A6188AE71300D200A61886E7482285
:10575000A618F2E71C1C00201B4A0300516888426F
:105760001CD0D16888421DD0516988421CD0D169B3
:1057700088421BD0516A88421AD0D16A884219D017
:10578000516B884218D0D16B884217D0516C884237
:1057900016D0D16C0020994214D070470023DB0052
:1057A000D058FAE70123FAE70223F8E70323F6E7E4
:1057B0000423F4E70523F2E70623F0E70723EEE7E7
:1057C0000823ECE70923EAE71C1C00201C4B5A685D
:1057D00090421BD0DA6890421FD05A6990421ED086
:1057E000DA6990421DD05A6A90421CD0DA6A90421F
:1057F0001BD05A6B90421AD0DA6B904219D05A6C77
:10580000904218D0DA6C824217D0704700220021F3
:10581000D20099509B185960F7E70122F7E702225E
:10582000F5E70322F3E70422F1E70522EFE706227A
:10583000EDE70722EBE70822E9E70922E7E7C046A0
:105840001C1C002070B5040016000D0001F002FEC3
:105850004422A35C5BB2013301D10023A35445224F
:10586000A35C5BB2013301D10023A35401F0FEFD20
:10587000A36B002B46D001F0EDFD4523E55C6DB236
:10588000002D16DD2600243604E0013DEBB26DB29A
:10589000002B0ED0636A002B0BD0300000F088FF85
:1058A0000028F2D0013D01F06FF8EBB26DB2002B91
:1058B000F0D14523FF22E25401F0D8FD01F0CAFDEA
:1058C0004423E55C6DB2002D16DD2600103604E0A1
:1058D000013DEBB26DB2002B0ED02369002B0BD033
:1058E000300000F065FF0028F2D0013D01F04CF8D7
:1058F000EBB26DB2002BF0D14423FF22E25401F051
:10590000B5FD70BD200032002900243000F002FFF8
:10591000B1E7C04670B5104C14E001F09BFD23695F
:10592000DD68281D01F052FEA369013BA3612368D5
:10593000013B236001F09AFD286B01F03BFD28003C
:1059400001F038FD2368002BE7D1E369012BF9D979
:1059500001F074FDF6E7C0465C0E0020F8B50400C7
:105960001A4D0E002F686868043001F02FFE631C8A
:1059700014D06B683C195C60A74209D8286A696832
:10598000043101F00BFE6B6AA34200D96C62F8BDD2
:10599000E8696968043101F001FEF8E7002EE8D0FB
:1059A0006A68EB68996893606A68D1606A68996808
:1059B00004324A606A6804329A602A006B680832CE
:1059C0005A61AB680133AB60E1E7C046DC0E0020F2
:1059D000F0B5DE46454657464E464349E0B50D68AC
:1059E0006B1C9B460B60002B0CD10B6ACA690A62C8
:1059F000CB618B6A01338B620B6A1B68002B69D108
:105A0000013B4B6200224B6A90469B4556D30B6A82
:105A10001B68002B4FD000239A46344B99461C2319
:105A20004B449C4636E0504614685861013C146073
:105A30009A6A002A0ED0DC69186AA0601E6A506853
:105A400074601C001834A04249D050461468986213
:105A5000013C1460DC6ACA6A944200D9CC624846B0
:105A6000A200121992008618306A62448568986014
:105A7000DD6085686F6087605A61F3690133F361A7
:105A80004B68DB6A9C4201D3012398460B6A1B6872
:105A9000002B10D00B6ADB68DB685A68934520D373
:105AA0005A699E68DC6850681F1DB4606660B84221
:105AB000B9D15460B7E701235B424B620B6B002BFB
:105AC00001D00123984640463CBC90469946A246E8
:105AD000AB46F0BD0B6ADB681B684B6292E7566011
